:020000040000FA
:10000000AD29AC0803100319A829AC032A08840001
:100010002B1883170008AA0A0314A829A0002A088D
:1000200084002B18831720088000AA0A0314A8292B
:100030000408A2008316871183120930A30003105D
:100040002820A20CA30B2028031428200314A8297D
:1000500003182D28000087116328871563282C08B2
:10006000A0002D08A100A201A30183160716831288
:1000700039283A286400071E5028FF30A207031CC5
:10008000A307031CA007031CA107031C0800220FE1
:100090003828230F39287D30A2000030A3003A28E9
:1000A0000030A100183017210830A300632003108E
:1000B000071A0314A20C00005D28A30B5628632026
:1000C00003142208A8290030A10063301729A400D6
:1000D000290803140319A829A321031C0800A00060
:1000E0002518831724088400200880008313A40A9D
:1000F000A9036828AE002E08A4002908AF002F0825
:1001000003140319A829A321031C0800A000031C41
:100110000800251883172408840020080002831390
:10012000031D7B28A40AAF037F28B31329080319F2
:10013000B3171030A8000301A40DA50D031801305A
:10014000C2202808031D9B280800B313290803199F
:10015000B3170530A8002730A3001030BB200330B0
:10016000A300E830BB20A3016430BB20A3010A3008
:10017000BB202408C228A2002508A1002408A00052
:1001800071212008A000A8030319B313290803193B
:10019000CC282802031808002008031DB313B31B42
:1001A0000800303EA329A000A00DA00D200D383975
:1001B000C1389F000030A100323017211F151F19D0
:1001C000DF281E08A10083161E08A829031783161E
:1001D0008C010C1483120C0803178D0AA829030143
:1001E00003178C0083168C010C1555308D00AA3036
:1001F0008D008C148C18FA280C1183128D0AA829F2
:100200008316F83881050F39810463000F308104AB
:10021000A829A301A200FF30A207031CA307031C07
:10022000A8290330A100E43017210B29A101F63ED3
:10023000A000A109031C2229FE300000A00703181A
:100240001D29A0076400A10F1C29000020182829DF
:1002500020182A290800A701A6001C30A2006F3030
:10026000A3008D210F30831681048312FF306300B9
:10027000A007031CA10703183729A8290310A00D04
:10028000A10DFF3E03183E292008A829A200013035
:100290004C29A20006304C29A80023082102031D86
:1002A00053292208200204300318013003190230B8
:1002B0002805031DFF30A8290038031DFF30040561
:1002C000031DFF30A829A2002008A6002408A000D2
:1002D0002608A4002108A6002508A1002608A500DC
:1002E0007329A501A4011030A600210DA40DA50DB0
:1002F0002208A4022308031C230FA5020318872940
:100300002208A40723080318230FA5070310A00D34
:10031000A10DA60B75292008A8291030A800A1015D
:10032000A001A70CA60C031C9B292208A0072308E8
:100330000318230FA107A10CA00CA50CA40CA80B5B
:1003400091292408A829840031088A0030088200F5
:100350008313031383126400080083161F30850083
:1003600001308600103087008312850186018701E5
:10037000831682309F008312E501E414E4116411B6
:1003800003178D0103138A01E620D3000317013000
:100390008D0003138A01E620D200031702308D007E
:1003A00003138A01E620D400031703308D000313E2
:1003B0008A01E620D60064308A0109218A110A12D6
:1003C00033220A308A0109218A110A1233220A30A3
:1003D0008A0109218A110A1233228A110A12F0298C
:1003E0008A110A12ED228A110A122A2364000130AE
:1003F00065028A110A12031C162AE7016400043000
:1004000067028A110A120318132A05308A01002193
:100410008A110A1233228A110A125B23E70A8A110F
:100420000A12031DFE298A110A12292AE701640013
:10043000023067028A110A120318292A05308A013C
:100440002B218A110A123322E70A8A110A12031D8C
:10045000172A64008A110A12061C312A8A110A120C
:100460007C2B8A01F0290330E6006400013066022B
:100470008A110A12031C742AFF306607DA00FF3063
:100480000318013EDB0003105A0D383E84000008BB
:10049000DA00840A0008DB000310660D383E840091
:1004A0005A088000840A5B088000FF306607DA0083
:1004B000FF300318013EDB0003105A0D423E84005A
:1004C0000008DA00840A0008DB000310660D423ED3
:1004D00084005A088000840A5B0880000130E6022C
:1004E0008A110A120318352A01308A0109210030C5
:1004F0008A01D320B8002108B90001308A01D32035
:10050000C2002108C30001308A0109214208A0006D
:100510004308A1003908A30038088A0149218A113B
:100520000A12031D972A3808C2003908C300380888
:100530003A07DA0039080318013E3B07DB003C08A4
:10054000DA073D080318013EDB073E08DA073F08DB
:100550000318013EDB075A08A0005B08A100043025
:10056000A200A3018A017121C0002108C100420834
:100570004407DA0043080318013E4507DB0046083C
:10058000DA0747080318013EDB074808DA0749087D
:100590000318013EDB075A08A0005B08A1000430E5
:1005A000A200A3018A017121CA002108CB001F10FB
:1005B00064008A110A12641DE82A52085607D00006
:1005C00053080318013E5707D1008A110A12EC2A7A
:1005D0005208D0005308D10008004008A00041088C
:1005E000A1005108A30050088A0149218A110A126A
:1005F000031DFF2AE41564108A110A12002BE4116E
:100600004A085407DA004B080318013E5507DB007F
:100610004008A0004108A1005B08A3005A088A0115
:100620004621DA000301E41DFF30DC005A08840093
:100630005C088A015C21DC00DD0064005C085D046C
:100640008A110A120319282B64148A110A12292B01
:10065000641008000310E50DE4196514E41D65102D
:1006600064006508FF3C8A110A12031D412B061520
:100670008316061183120616831606128312E410DF
:10068000641164006508003C8A110A12031D5A2B8C
:1006900006118316061183128611831686118312A2
:1006A000061283160612831286128316861283128E
:1006B000E4146415080003016418FF30DA00030134
:1006C000E41CFF30DC005A0884005C088A015C21CD
:1006D000DC00DD0064005C085D048A110A12031965
:1006E0007B2B0830860683168611203083128606FF
:1006F000831686128312080003178D0103138A01E3
:10070000E620D300031701308D0003138A01E62091
:10071000D200031702308D0003138A01E620D400B3
:1007200064008A110A12641DA02B52085607D000DB
:1007300053080318013E5707D1008A110A12A42B4F
:100740005208D0005308D10057308A011920613077
:100750008A01192069308A01192074308A01192010
:1007600069308A0119206E308A01192067308A01A8
:10077000192020308A01192069308A0119206E3031
:100780008A01192070308A01192075308A011920D8
:1007900074308A0119203A308A0119200D308A01FB
:1007A00019200A308A011920D030AC000730AD0082
:1007B0000130A9002F30B000B101A5014C308A01F1
:1007C00067208A150A12031C6E2BE20164000330B5
:1007D00062028A110A120318522C64006208003C5B
:1007E0008A110A12031DFD2B6330AA00AB013130C0
:1007F0008A010E208A110A121A2C64006208013C38
:100800008A110A12031D0D2C6330AA00AB0132308D
:100810008A010E208A110A121A2C64006208023C16
:100820008A110A12031D1A2C6330AA00AB0133305F
:100830008A010E204C30AA00AB010430AC00AD019F
:100840000130A9000130B000B101A50163308A0177
:100850007A208A110A12031C4D2C6208A100023C66
:100860008A110A12031C4D2CA10D8A110A12402470
:10087000A00021108A110A1240248A002008820058
:1008800004308A002108473E03188A0A8200043493
:1008900055340634C83409340834E20A8A110A127D
:1008A000031DE62B8A150A12452B5208A600530891
:1008B000A700C830A200A3018A018D21D800250815
:1008C000D900A30189308A016321D8002108D90009
:1008D00041308A01192044308A01192043308A01AD
:1008E000192032308A0119203A308A01192020302B
:1008F0008A01192020308A0119200430A9005208E9
:10090000A4005308A5001830B000B1018A01A52049
:1009100020308A01192020308A01192020308A01D4
:10092000192020308A01192020308A0119205630E0
:100930008A0119206F308A0119206C308A01192030
:1009400074308A0119203A308A01192020308A0136
:1009500019200230A9005208A6005308A70002304F
:10096000A200A3018A018D21DA002508DB005A08C4
:10097000A0005B08A1008930A200A3018A017121B7
:10098000DA002108DB005A08A4005B08A500183033
:10099000B000B1018A01A5202E308A011920013052
:1009A000A9005208A6005308A7001430A200A30112
:1009B0008A018D21DA002508DB005A08A0005B08B7
:1009C000A1008930A200A3018A017121DA00210867
:1009D000DB005A08A4005B08A5001830B000B10184
:1009E0008A01A5200130A9005808A4005908A500D3
:1009F0001830B000B1018A01A5200D308A011920FC
:100A00000A308A01192041308A0119206E308A018A
:100A100019206E308A01192061308A011920203096
:100A20008A01192041308A01192044308A01192095
:100A300043308A01192020308A01192061308A014F
:100A4000192072308A01192076308A0119206F30FE
:100A50008A01192020308A01192028308A011920A2
:100A600031308A01192041308A01192044308A012D
:100A7000192043308A0119203D308A011920313074
:100A80008A01192034308A0119202E308A01192058
:100A900036308A0119206D308A01192056308A01BA
:100AA000192029308A0119203A308A011920203072
:100AB0008A0119200D308A0119200A308A01192073
:100AC0001030AC002730AD000430A9002F30B0004A
:100AD000B101A5014C308A0167208A110A12031C5A
:100AE000F029D0304C07DA00FF300318013EDB005C
:100AF0005A08A6005B08A700E830A2000330A30054
:100B00008A018D21DA002508DB00D0304D07DC009A
:100B1000FF300318013EDD005C08A6005D08A70059
:100B20006430A200A3018A018D21DC002508DD00CC
:100B30005A08DC075B080318013EDD07D0304E077A
:100B4000DE00FF300318013EDF005E08A6005F08EC
:100B5000A7000A30A200A3018A018D21DE0025082A
:100B6000DF005C08DE075D080318013EDF07D030B8
:100B70004F07E000FF300318013EE1005E08600708
:100B8000D2005F080318013E6107D30003178D01EF
:100B9000031353088A01F020031701308D0003135B
:100BA00052088A01F0205208A6005308A700C83056
:100BB000A200A3018A018D21D8002508D900A30134
:100BC00089308A016321D8002108D90041308A0187
:100BD000192044308A01192043308A01192032300B
:100BE0008A0119203A308A01192020308A011920FF
:100BF00020308A0119200430A9005208A4005308AB
:100C0000A5001830B000B1018A01A52020308A016A
:100C1000192020308A01192020308A011920203023
:100C20008A01192020308A01192056308A011920A2
:100C30006F308A0119206C308A01192074308A01C2
:100C400019203A308A01192020308A0119200230F7
:100C5000A9005208A6005308A7000230A200A30171
:100C60008A018D21DA002508DB005A08A0005B0804
:100C7000A1008930A200A3018A017121DA002108B4
:100C8000DB005A08A4005B08A5001830B000B101D1
:100C90008A01A5202E308A0119200130A9005208AE
:100CA000A6005308A7001430A200A3018A018D21D9
:100CB000DA002508DB005A08A0005B08A100893093
:100CC000A200A3018A017121DA002108DB005A0881
:100CD000A4005B08A5001830B000B1018A01A5206E
:100CE0000130A9005808A4005908A5001830B00028
:100CF000B1018A01A5200D308A0119200A308A012C
:100D000019202D308A0119202D308A0119202D300B
:100D10008A0119202D308A0119202D308A011920CD
:100D20002D308A0119202D308A0119202D308A0199
:100D300019202D308A0119202D308A0119202D30DB
:100D40008A0119202D308A0119202D308A0119209D
:100D50002D308A0119202D308A0119202D308A0169
:100D600019202D308A0119202D308A0119202D30AB
:100D70008A0119202D308A0119202D308A0119206D
:100D80000D308A0119200A308A0119208A01F029C0
:100D90005408A6005508A700C830A200A3018A0184
:100DA0008D21D8002508D900A30189308A0163214B
:100DB000D8002108D90041308A01192044308A0125
:100DC000192043308A01192033308A0119203A3022
:100DD0008A01192020308A01192020308A01192027
:100DE0000430A9005408A4005508A5001830B0002C
:100DF000B1018A01A52020308A01192020308A0102
:100E0000192020308A01192020308A011920203031
:100E10008A01192056308A0119206F308A01192061
:100E20006C308A01192074308A0119203A308A0105
:100E3000192020308A0119200230A9005408A60088
:100E40005508A7000230A200A3018A018D21DA0013
:100E50002508DB005A08A0005B08A1008930A20029
:100E6000A3018A017121DA002108DB005A08A400DD
:100E70005B08A5001830B000B1018A01A5202E3012
:100E80008A0119200130A9005408A6005508A700BE
:100E90001430A200A3018A018D21DA002508DB00AD
:100EA0005A08A0005B08A1008930A200A3018A01B2
:100EB0007121DA002108DB005A08A4005B08A500B4
:100EC0001830B000B1018A01A5200130A9005808EE
:100ED000A4005908A5001830B000B1018A01A5206E
:100EE0000D308A0119200A308A01192041308A0107
:100EF00019206E308A0119206E308A011920613064
:100F00008A01192020308A01192044308A011920D1
:100F100065308A0119206C308A01192074308A01E9
:100F2000192061308A01192020308A01192061308E
:100F30008A01192072308A01192076308A0119201D
:100F40006F308A01192020308A01192028308A0147
:100F5000192031308A01192041308A01192044308A
:100F60008A01192043308A0119203D308A01192055
:100F700031308A01192034308A0119202E308A013B
:100F8000192036308A0119206D308A011920563017
:100F90008A01192029308A0119203A308A01192042
:100FA00020308A0119200D308A0119200A308A0167
:100FB00019201030AC002730AD000230A9002F30CE
:100FC000B000B101A5014C308A0167208A110A12D4
:100FD000031CF029D0304C07DA00FF300318013E23
:100FE000DB005A08A6005B08A7000A30A200A30194
:100FF0008A018D21DA002508DB00D0304D07DC00A6
:10100000FF300318013EDD005A085C07D4005B087E
:101010000318013E5D07D500031702308D0003134E
:1010200054088A01F0205408A6005508A700C830CB
:10103000A200A3018A018D21D8002508D900A301AF
:1010400089308A016321D8002108D90041308A0102
:10105000192044308A01192043308A011920333085
:101060008A0119203A308A01192020308A0119207A
:1010700020308A0119200430A9005408A400550822
:10108000A5001830B000B1018A01A52020308A01E6
:10109000192020308A01192020308A01192020309F
:1010A0008A01192020308A01192056308A0119201E
:1010B0006F308A0119206C308A01192074308A013E
:1010C00019203A308A01192020308A011920023073
:1010D000A9005408A6005508A7000230A200A301E9
:1010E0008A018D21DA002508DB005A08A0005B0880
:1010F000A1008930A200A3018A017121DA00210830
:10110000DB005A08A4005B08A5001830B000B1014C
:101110008A01A5202E308A0119200130A900540827
:10112000A6005508A7001430A200A3018A018D2152
:10113000DA002508DB005A08A0005B08A10089300E
:10114000A200A3018A017121DA002108DB005A08FC
:10115000A4005B08A5001830B000B1018A01A520E9
:101160000130A9005808A4005908A5001830B000A3
:10117000B1018A01A5200D308A0119200A308A01A7
:1011800019202D308A0119202D308A0119202D3087
:101190008A0119202D308A0119202D308A01192049
:1011A0002D308A0119202D308A0119202D308A0115
:1011B00019202D308A0119202D308A0119202D3057
:1011C0008A0119202D308A0119202D308A01192019
:1011D0002D308A0119202D308A0119202D308A01E5
:1011E00019202D308A0119202D308A0119202D3027
:1011F0008A0119202D308A0119202D308A011920E9
:101200000D308A0119200A308A0119208A01F0293B
:101210005608A6005708A700C830A200A3018A01FB
:101220008D21D8002508D900A30189308A016321C6
:10123000D8002108D90048308A01192079308A0164
:10124000192073308A01192074308A0119203A302C
:101250008A01192020308A01192020308A011920A2
:101260000430A9005608A4005708A5001830B000A3
:10127000B1018A01A52020308A01192020308A017D
:10128000192020308A01192020308A0119202030AD
:101290008A01192056308A0119206F308A011920DD
:1012A0006C308A01192074308A0119203A308A0181
:1012B000192020308A0119200230A9005608A60002
:1012C0005708A7000230A200A3018A018D21DA008D
:1012D0002508DB005A08A0005B08A1008930A200A5
:1012E000A3018A017121DA002108DB005A08A40059
:1012F0005B08A5001830B000B1018A01A5202E308E
:101300008A0119200130A9005608A6005708A70035
:101310001430A200A3018A018D21DA002508DB0028
:101320005A08A0005B08A1008930A200A3018A012D
:101330007121DA002108DB005A08A4005B08A5002F
:101340001830B000B1018A01A5200130A900580869
:10135000A4005908A5001830B000B1018A01A520E9
:101360000D308A0119200A308A01192041308A0182
:1013700019206E308A0119206E308A0119206130DF
:101380008A01192020308A01192048308A01192049
:1013900079308A01192073308A01192074308A014A
:1013A000192020308A01192061308A0119207230F9
:1013B0008A01192076308A0119206F308A0119209C
:1013C00020308A01192028308A01192031308A0101
:1013D000192041308A01192044308A0119204330F4
:1013E0008A0119203D308A01192031308A011920E3
:1013F00034308A0119202E308A01192036308A01B2
:1014000019206D308A01192056308A01192029309F
:101410008A0119203A308A01192020308A011920C6
:101420000D308A0119200A308A0119201030AC00D1
:101430002730AD000230A9002F30B000B101A50166
:101440004C308A0167208A110A12031CF029D0301F
:101450004C07DA00FF300318013EDB005A08A600F3
:101460005B08A7000A30A200A3018A018D21DA00DF
:101470002508DB00D0304D07DC00FF300318013EAB
:10148000DD005A085C07D6005B080318013E5D07C3
:10149000D700031703308D00031356088A01F0208C
:1014A0005608A6005708A700C830A200A3018A0169
:1014B0008D21D8002508D900A30189308A01632134
:1014C000D8002108D90048308A01192079308A01D2
:1014D000192073308A01192074308A0119203A309A
:1014E0008A01192020308A01192020308A01192010
:1014F0000430A9005608A4005708A5001830B00011
:10150000B1018A01A52020308A01192020308A01EA
:10151000192020308A01192020308A01192020301A
:101520008A01192056308A0119206F308A0119204A
:101530006C308A01192074308A0119203A308A01EE
:10154000192020308A0119200230A9005608A6006F
:101550005708A7000230A200A3018A018D21DA00FA
:101560002508DB005A08A0005B08A1008930A20012
:10157000A3018A017121DA002108DB005A08A400C6
:101580005B08A5001830B000B1018A01A5202E30FB
:101590008A0119200130A9005608A6005708A700A3
:1015A0001430A200A3018A018D21DA002508DB0096
:1015B0005A08A0005B08A1008930A200A3018A019B
:1015C0007121DA002108DB005A08A4005B08A5009D
:1015D0001830B000B1018A01A5200130A9005808D7
:1015E000A4005908A5001830B000B1018A01A52057
:1015F0000D308A0119200A308A0119202D308A0104
:1016000019202D308A0119202D308A0119202D3002
:101610008A0119202D308A0119202D308A011920C4
:101620002D308A0119202D308A0119202D308A0190
:1016300019202D308A0119202D308A0119202D30D2
:101640008A0119202D308A0119202D308A01192094
:101650002D308A0119202D308A0119202D308A0160
:1016600019202D308A0119202D308A0119202D30A2
:101670008A0119202D308A0119200D308A01192084
:101680000A308A0119208A01F02942308A01192082
:1016900041308A01192044308A01192020308A0102
:1016A000192043308A0119204F308A0119204D300A
:1016B0008A0119204D308A01192041308A011920F0
:1016C0004E308A01192044308A0119200D308A01D8
:1016D00019200A308A0119208A01F0290D308A0167
:1016E00019200A308A0119204008A6004108A700E5
:1016F000C830A200A3018A018D21D8002508D90095
:10170000A30189308A016321D8002108D900413022
:101710008A01192044308A01192043308A01192096
:1017200030308A0119203A308A01192020308A018C
:10173000192020308A0119200430A9004008A40093
:101740004108A5001830B000B1018A01A520203061
:101750008A01192020308A01192020308A0119209D
:1017600020308A01192020308A01192056308A0140
:1017700019206F308A0119206C308A0119207430C9
:101780008A0119203A308A01192020308A01192053
:101790000230A9004008A6004108A7000230A200BC
:1017A000A3018A018D21DA002508DB005A08A00078
:1017B0005B08A1008930A200A3018A017121DA002F
:1017C0002108DB005A08A4005B08A5001830B0000F
:1017D000B1018A01A5202E308A0119200130A9000B
:1017E0004008A6004108A7001430A200A3018A0106
:1017F0008D21DA002508DB005A08A0005B08A10053
:101800008930A200A3018A017121DA002108DB00DE
:101810005A08A4005B08A5001830B000B1018A0185
:10182000A5200130A9005808A4005908A5001830C7
:10183000B000B1018A01A5200D308A0119200A30BB
:101840008A0119204A08A6004B08A700C830A20048
:10185000A3018A018D21D8002508D900A301893070
:101860008A016321D8002108D90041308A0119205A
:1018700044308A01192043308A01192031308A010D
:1018800019203A308A01192020308A01192020308D
:101890008A0119200430A9004A08A4004B08A500B9
:1018A0001830B000B1018A01A52020308A0119202A
:1018B00020308A01192020308A01192020308A0125
:1018C000192020308A01192056308A0119206F30E2
:1018D0008A0119206C308A01192074308A0119207C
:1018E0003A308A01192020308A0119200230A900DB
:1018F0004A08A6004B08A7000230A200A3018A01F3
:101900008D21DA002508DB005A08A0005B08A10041
:101910008930A200A3018A017121DA002108DB00CD
:101920005A08A4005B08A5001830B000B1018A0174
:10193000A5202E308A0119200130A9004A08A600EE
:101940004B08A7001430A200A3018A018D21DA0000
:101950002508DB005A08A0005B08A1008930A2001E
:10196000A3018A017121DA002108DB005A08A400D2
:101970005B08A5001830B000B1018A01A520013034
:10198000A9005808A4005908A5001830B000B101FA
:101990008A01A5200D308A0119200A308A011920F8
:1019A0005008A6005108A700C830A200A3018A0170
:1019B0008D21D8002508D900A30189308A0163212F
:1019C000D8002108D90041308A01192044308A0109
:1019D000192043308A01192032308A0119203A3007
:1019E0008A01192020308A01192020308A0119200B
:1019F0000430A9005008A4005108A5001830B00018
:101A0000B1018A01A52020308A01192020308A01E5
:101A1000192020308A01192020308A011920203015
:101A20008A01192056308A0119206F308A01192045
:101A30006C308A01192074308A0119203A308A01E9
:101A4000192020308A0119200230A9005008A60070
:101A50005108A7000230A200A3018A018D21DA00FB
:101A60002508DB005A08A0005B08A1008930A2000D
:101A7000A3018A017121DA002108DB005A08A400C1
:101A80005B08A5001830B000B1018A01A5202E30F6
:101A90008A0119200130A9005008A6005108A700AA
:101AA0001430A200A3018A018D21DA002508DB0091
:101AB0005A08A0005B08A1008930A200A3018A0196
:101AC0007121DA002108DB005A08A4005B08A50098
:101AD0001830B000B1018A01A5200130A9005808D2
:101AE000A4005908A5001830B000B1018A01A52052
:101AF0000D308A0119200A308A0119205408A600E5
:101B00005508A700C830A200A3018A018D21D80082
:101B10002508D900A30189308A016321D800210852
:101B2000D90041308A01192044308A0119204330FC
:101B30008A01192033308A0119203A308A0119208C
:101B400020308A01192020308A0119200430A90090
:101B50005408A4005508A5001830B000B1018A014E
:101B6000A52020308A01192020308A011920203038
:101B70008A01192020308A01192020308A01192079
:101B800056308A0119206F308A0119206C308A0181
:101B9000192074308A0119203A308A011920203026
:101BA0008A0119200230A9005408A6005508A70090
:101BB0000230A200A3018A018D21DA002508DB0092
:101BC0005A08A0005B08A1008930A200A3018A0185
:101BD0007121DA002108DB005A08A4005B08A50087
:101BE0001830B000B1018A01A5202E308A011920D9
:101BF0000130A9005408A6005508A7001430A2001F
:101C0000A3018A018D21DA002508DB005A08A00013
:101C10005B08A1008930A200A3018A017121DA00CA
:101C20002108DB005A08A4005B08A5001830B000AA
:101C3000B1018A01A5200130A9005808A400590863
:101C4000A5001830B000B1018A01A5200D308A012D
:101C500019200A308A0119205608A6005708A70043
:101C6000C830A200A3018A018D21D8002508D9001F
:101C7000A30189308A016321D8002108D9004830A6
:101C80008A01192079308A01192073308A011920BC
:101C900074308A0119203A308A01192020308A01D3
:101CA000192020308A0119200430A9005608A40008
:101CB0005708A5001830B000B1018A01A5202030D6
:101CC0008A01192020308A01192020308A01192028
:101CD00020308A01192020308A01192056308A01CB
:101CE00019206F308A0119206C308A011920743054
:101CF0008A0119203A308A01192020308A011920DE
:101D00000230A9005608A6005708A7000230A2001A
:101D1000A3018A018D21DA002508DB005A08A00002
:101D20005B08A1008930A200A3018A017121DA00B9
:101D30002108DB005A08A4005B08A5001830B00099
:101D4000B1018A01A5202E308A0119200130A90095
:101D50005608A6005708A7001430A200A3018A0164
:101D60008D21DA002508DB005A08A0005B08A100DD
:101D70008930A200A3018A017121DA002108DB0069
:101D80005A08A4005B08A5001830B000B1018A0110
:101D9000A5200130A9005808A4005908A500183052
:101DA000B000B1018A01A5200D308A0119200A3046
:101DB0008A0119204A084002DA004B08031C013E40
:101DC0004102DB005A08A6005B08A700C830A20049
:101DD000A3018A018D21D8002508D900A3018930EB
:101DE0008A016321D8002108D90044308A011920D2
:101DF00065308A0119206C308A01192074308A01FB
:101E0000192061308A0119203A308A0119202030C6
:101E10008A0119200430A9004A084002DA004B0860
:101E2000031C013E4102DB005A08A4005B08A50028
:101E30001830B000B1018A01A52020308A01192094
:101E400020308A01192020308A01192020308A018F
:101E5000192020308A01192056308A0119206F304C
:101E60008A0119206C308A01192074308A011920E6
:101E70003A308A01192020308A0119200230A90045
:101E80004A084002DA004B08031C013E4102DB0015
:101E90005A08A6005B08A7000230A200A3018A012D
:101EA0008D21DA002508DB005A08A0005B08A1009C
:101EB0008930A200A3018A017121DA002108DB0028
:101EC0005A08A4005B08A5001830B000B1018A01CF
:101ED000A5202E308A0119200130A9004A084002AD
:101EE000DA004B08031C013E4102DB005A08A60041
:101EF0005B08A7001430A200A3018A018D21DA003B
:101F00002508DB005A08A0005B08A1008930A20068
:101F1000A3018A017121DA002108DB005A08A4001C
:101F20005B08A5001830B000B1018A01A52001307E
:101F3000A9005808A4005908A5001830B000B10144
:101F40008A01A5200D308A0119200A308A01192042
:101F500043308A0119206F308A01192075308A01B7
:101F600019206E308A01192074308A0119206530D9
:101F70008A01192072308A0119203A308A01192009
:101F80000830A9006508A400A5011830B000B1010F
:101F90008A0195200D308A0119200A308A01192002
:101FA0002D308A0119202D308A0119202D308A0107
:101FB00019202D308A0119202D308A0119202D3049
:101FC0008A0119202D308A0119202D308A0119200B
:101FD0002D308A0119202D308A0119202D308A01D7
:101FE00019202D308A0119202D308A0119202D3019
:101FF0008A0119202D308A0119202D308A011920DB
:102000002D308A0119202D308A0119202D308A01A6
:1020100019202D308A0119202D308A0119200D3008
:0E2020008A0119200A308A0119208A01F0294C
:02400E00363F3B
:08420000030084000700150013
:00000001FF
